:100000000C9462030C9492050C946B050C948D0770
:100010000C948D070C948D070C948A030C9407089C
:100020000C948A030C948A030C948A030C948A031C
:100030000C948A030C948A030C948A030C948A030C
:100040000C94130B0C948A030C948A030C948A036B
:100050000C948A030C948A030C948A030C948A03EC
:100060000C948A030C948A034E414E494E495459CC
:10007000494E46CDCCCC3D0AD7233C17B7D1387773
:10008000CC2B329595E6241FB14F0A000020410089
:1000900000C84200401C4620BCBE4CCA1B0E5AAED3
:1000A000C59D7400407A10F35A00A0724E180900E2
:1000B00010A5D4E80000E87648170000E40B5402CD
:1000C0000000CA9A3B000000E1F505000080969808
:1000D00000000040420F000000A086010000001058
:1000E0002700000000E8030000000064000000009A
:1000F000000A00000000000100000000002C76D87B
:1001000088DC674F0823DFC1DFAE59E1B1B796E560
:10011000E3E453C63AE651997696E8E6C28426EBC4
:10012000898C9B62ED407C6FFCEFBC9C9F40F2BAD7
:10013000A56FA5F490055A2AF75C936B6CF9676D6F
:10014000C11BFCE0E40D47FEF520E6B500D0ED90C4
:100150002E0300943577050080841E080000204E91
:100160000A000000C80C333333330F986E1283112A
:1001700041EF8D2114893BE65516CFFEE6DB18D101
:10018000844B381BF77C1D901DA4BBE424203284D3
:10019000725E228100C9F124ECA1E53D2700000038
:1001A0000023002600290053494D3830304C203AB6
:1001B0002052657365740020627974657300534939
:1001C0004D3830304C203A20507265706172652095
:1001D000726563657074696F6E20627566666572BC
:1001E000206F6620002062797465730053494D3892
:1001F00030304C203A205072657061726520696E13
:100200007465726E616C20627566666572206F66D9
:10021000200053494D3830304C203A207465726DBF
:10022000696E617465485454502829202D20556EFC
:1002300061626C6520746F20636C6F736520485435
:1002400054502073657373696F6E0041542B48548A
:1002500054505445524D0053494D3830304C203A9B
:1002600020646F4765742829202D205265636569D5
:100270007665642066726F6D20485454502047455F
:1002800054203A200053494D3830304C203A2064F5
:100290006F4765742829202D20496E76616C69644A
:1002A00020656E64206F66206461746120776869E0
:1002B0006C652072656164696E67204854545020F3
:1002C000726573756C742066726F6D20746865203A
:1002D0006D6F64756C650053494D3830304C203A71
:1002E00020646F4765742829202D20427566666555
:1002F00072206F766572666C6F77207768696C65BF
:10030000206C6F6164696E6720646174612066723D
:100310006F6D20485454502E204B656570206F6ED1
:100320006C792066697273742062797465732E2EFD
:100330002E002B48545450524541443A2000415419
:100340002B485454505245414400206279746573DF
:100350000053494D3830304C203A20646F47657463
:100360002829202D20446174612073697A652072E8
:1003700065636569766564206F66200053494D3872
:1003800030304C203A20646F4765742829202D2096
:100390004854545020737461747573200053494D50
:1003A0003830304C203A20646F4765742829202D5E
:1003B00020496E76616C696420616E737765722086
:1003C0006F6E2048545450204745540053494D38CF
:1003D00030304C203A20646F4765742829202D2046
:1003E0005365727665722074696D656F757400531C
:1003F000494D3830304C203A20696E697469617417
:1004000065485454502829202D20556E61626C6532
:1004100020746F2073776974636820746F20485468
:1004200054500041542B4854545053534C3D3000C9
:1004300053494D3830304C203A20696E69746961F7
:100440007465485454502829202D20556E61626CE3
:100450006520746F2073776974636820746F204817
:10046000545450530041542B4854545053534C3D12
:10047000310053494D3830304C203A20696E697450
:1004800069617465485454502829202D20556E61A7
:10049000626C6520746F20646566696E652074689F
:1004A000652055524C0041542B48545450504152F1
:1004B000413D2255524C222C0053494D3830304C8E
:1004C000203A20696E6974696174654854545028F3
:1004D00029202D20556E61626C6520746F20646543
:1004E00066696E65206265617265720041542B48D1
:1004F000545450504152413D22434944222C310032
:1005000053494D3830304C203A20696E6974696126
:100510007465485454502829202D20556E61626C12
:100520006520746F20696E697420485454500041EE
:10053000542B48545450494E49540053494D383077
:10054000304C203A20646F4765742829202D2055AF
:100550006E61626C6520746F20696E697469617484
:10056000652047455420616374696F6E0041542BC8
:1005700048545450414354494F4E3D30004154007B
:1005800041542B4353510041542B435245473F00A4
:1005900041542B53415042523D332C312C22415077
:1005A0004E222C0041542B53415042523D332C31AA
:1005B0002C22436F6E74797065222C22475052535F
:1005C00022004F4B0041542B53415042523D312C9D
:1005D0003100220053494D3830304C203A205365C9
:1005E0006E6420220022002200220053494D383040
:1005F000304C203A2053656E642022000000000039
:10060000240027002A0000000000250028002B00FD
:1006100004040404040404040202020202020303A8
:1006200003030303010204081020408001020408B0
:100630001020010204081020000000080002010040
:1006400000030407000000000000000022005349DE
:100650004D3830304C203A2052656365697665200C
:10066000220053494D3830304C203A2052656365A2
:100670006976652074696D656F75740053494D38EE
:1006800030304C203A205265636569766564206D90
:100690006178696D756D2062756666657220736933
:1006A0007A650053494D3830304C203A20456E640D
:1006B000206F66207472616E736D697373696F6EFB
:1006C0000000DA1311241FBECFEFD8E0DEBFCDBF8C
:1006D00022E0A8ECB1E001C01D92AE34B207E1F710
:1006E00011E0A0E0B1E0ECE1FBE302C005900D9267
:1006F000A83CB107D9F713E0C2E6D3E004C02197C4
:10070000FE010E940B1AC136D107C9F70E945D0B8A
:100710000C948C1D0C9400000895CF92DF92EF9200
:10072000FF920F931F93CF93DF936C017A018B019C
:10073000C0E0D0E0CE15DF0581F0D8016D918D01CC
:10074000D601ED91FC910190F081E02DC601099553
:10075000892B11F02196EECF7E01C701DF91CF9159
:100760001F910F91FF90EF90DF90CF900895CF935E
:10077000DF93EC0188819981DC01ED91FC91068089
:10078000F781E02D099588819981DC01ED91FC913B
:100790000084F185E02D0995A881B981ED91FC9146
:1007A0001197892B31F00284F385E02DCD01099555
:1007B000EACF0680F781E02DCD01DF91CF9109943A
:1007C0000895CF93DF931F92CDB7DEB76983DC0125
:1007D000ED91FC910280F381E02D41E050E0BE01FB
:1007E0006F5F7F4F09950F90DF91CF910895209112
:1007F000CA013091CB012817390771F49091C801D3
:100800008091C901981741F0E091C801F0E0ED52E4
:10081000FE4F808190E008958FEF9FEF08951F9322
:10082000CF93DF93DC015C968D919C915D9700974F
:1008300039F421E030E013963C932E9312973BC09D
:100840005196ED91FC91529750962C915097322FE2
:1008500030951FB75E964C915E97742F727041FD74
:100860006095F8944081772311F0422B01C0432317
:100870004083EC012197F1F748E0508160FF02C00E
:10088000522B01C053235083EC012197F1F7669559
:10089000415099F78081772319F08323808302C028
:1008A000282B20831FBF5C968D919C915D970197AB
:1008B000F1F781E090E0DF91CF911F9108952091B1
:1008C000CA013091CB012817390771F48091C90111
:1008D0002091C80190E0805C9F4F821B910960E4E9
:1008E00070E00E94C119089580E090E00895209181
:1008F000CA013091CB0128173907B9F49091C8018A
:100900008091C901981789F0E091C801F0E0ED529B
:10091000FE4F80812091C80130E02F5F3F4F2F7341
:1009200033272093C80190E008958FEF9FEF08953B
:10093000089580E090E008950E94681D0F931F9332
:10094000CF93DF93EC0188819981009729F02A8168
:100950003B812617370788F48B016F5F7F4F0E941A
:10096000A21C009761F0998388831B830A832C81E2
:100970003D81232B11F4FC01108281E001C080E055
:10098000DF91CF911F910F910895EF92FF921F93E6
:10099000CF93DF937C01C091D101D091D2012196F8
:1009A0009695879511E0C817D90708F010E0612FD8
:1009B00085E00E94140A612F86E00E94140AEC165A
:1009C000FD0610F4C0E0D0E0D093D201C093D10175
:1009D000DF91CF911F91FF90EF900895EF92FF92DA
:1009E0000F931F93CF93DF936115710511F480E08E
:1009F0001CC041155105C1F07B01EC018C819D812A
:100A00008A01080F191FB801CE010E949E04882395
:100A100071F3288139818C819D81B701820F931FE9
:100A20000E94761D1D830C8381E0DF91CF911F9181
:100A30000F91FF90EF9008956115710551F0FB0142
:100A400001900020E9F73197AF01461B570B0C943A
:100A5000EE0480E00895EF92FF920F931F93CF93DF
:100A6000DF93EC017B018A01BA010E949E04288178
:100A7000398181110DC02115310519F0C9010E947C
:100A8000191C198218821D821C821B821A8206C0C0
:100A90001D830C83B701C9010E94761DCE01DF9131
:100AA000CF911F910F91FF90EF900895FC0111825B
:100AB000108213821282158214826115710551F021
:100AC000FB0101900020E9F73197AF01461B570B5E
:100AD0000C942B0508951F920F920FB60F921124BC
:100AE0002F933F934F935F936F937F938F939F9336
:100AF000AF93BF93EF93FF93E0910201F091030155
:100B00000995FF91EF91BF91AF919F918F917F9147
:100B10006F915F914F913F912F910F900FBE0F906A
:100B20001F9018951F920F920FB60F9211242F93BA
:100B30003F934F935F936F937F938F939F93AF9365
:100B4000BF93EF93FF93E0910001F09101010995AC
:100B5000FF91EF91BF91AF919F918F917F916F9195
:100B60005F914F913F912F910F900FBE0F901F906B
:100B70001895EF92FF920F931F93CF93DF938C0101
:100B80007B01C0E0D0E0F701EC0FFD1F649166230C
:100B900061F0D801ED91FC910190F081E02DC80148
:100BA0000995892B11F02196EECFCE01DF91CF91DF
:100BB0001F910F91FF90EF900895FF920F931F9355
:100BC000CF93DF93FB0101900020E9F73197EF010C
:100BD000C61BD70BFB01E20FF31F80E090E06FEF25
:100BE0007FEF2C173D07E8F4DA010D900020E9F7BC
:100BF0001197A41BB50B8A179B0798F4F1908A01F3
:100C0000080F191FD8011C91F11204C077FDB9011A
:100C1000019604C080E090E06FEF7FEF2F5F3F4FC1
:100C2000E0CFFA0101900020E9F73197E41BF50BC2
:100C30008E179F0710F0CB0102C08FEF9FEFDF915F
:100C4000CF911F910F91FF9008956115710579F073
:100C5000FB0101900020E9F73197AF01461B570BCC
:100C6000DC01ED91FC910280F381E02D099480E09C
:100C700090E00895EF92FF920F931F93CF93DF932D
:100C8000EC017B018A018F85882311F16BEE75E001
:100C90008A819B810E94B905B7018A819B810E944C
:100CA000250669EE75E08A819B810E94B905B8012D
:100CB0008A819B810E94250667EE75E08A819B816F
:100CC0000E94B90565EE75E08A819B810E946708E4
:100CD000CE010E94B703B701888199810E94250641
:100CE00065EC71E0888199810E942506B8018881B0
:100CF00099810E94250665EC71E0888199810E94A6
:100D0000250662EC71E0888199810E942506CE015A
:100D1000DF91CF911F910F91FF90EF900C94B7034B
:100D20000F931F93CF93DF93CDB7DEB7A0970FB686
:100D3000F894DEBF0FBECDBF8C01CE0101960E949C
:100D40006614F80187858823A9F064ED75E0828137
:100D500093810E94B905BE016F5F7F4FF8018281C8
:100D600093810E94250662ED75E0F80182819381EE
:100D70000E946708C8010E94B703BE016F5F7F4FE2
:100D8000F801808191810E94250662EC71E0F801F2
:100D9000808191810E942506C8010E94B703A09618
:100DA0000FB6F894DEBF0FBECDBFDF91CF911F917C
:100DB0000F9108950F931F93CF93DF93EC01062FAC
:100DC000142F60E088890E94140A9C858D859CBD43
:100DD0008DBD0EBD00000DB407FEFDCF8EB51EBD4E
:100DE00000000DB407FEFDCF1EB561E088890E94AA
:100DF000140A812FDF91CF911F910F9108956F7782
:100E000040E00C94DA060F931F93CF93DF93EC012D
:100E1000E881F9810084F185E02D0995892B91F015
:100E20006DE0CE010E94FF06082F60E0CE010E9417
:100E3000FF06182F402F6DE8CE010E94DA06812FA1
:100E400090E002C08FEF9FEFDF91CF911F910F9144
:100E50000895CF93DF93EC01E881F9810084F18557
:100E6000E02D0995892B59F08A8D9B8D01969B8FDA
:100E70008A8F60E0CE010E94FF0690E002C08FEFF3
:100E80009FEFDF91CF910895CF93DF93EC0163E162
:100E90000E94FF0690E02A8D3B8D821B930BDF9111
:100EA000CF910895AF92BF92CF92DF92FF920F93AE
:100EB0001F93CF93DF936C015B01EA0162E20E9412
:100EC000FF06F82E90E09C012C0F3D1F2F3F3105AF
:100ED00029F020F0CFEFD0E0C81BD90B8501AC0E74
:100EE000BD1E0A151B0541F0F80141918F0160E814
:100EF000C6010E94DA06F5CF4C2F4F0D62EAC601FB
:100F00000E94DA06CE01DF91CF911F910F91FF90E1
:100F1000DF90CF90BF90AF9008951F920F920FB6C1
:100F20000F9211242F933F934F935F936F937F936F
:100F30008F939F93AF93BF93EF93FF93E091CA0179
:100F4000F091CB01309709F451C0968DA685B785F5
:100F5000858591FF04C09C91892329F447C09C9109
:100F6000892309F043C0A389B4899C918589809520
:100F700089238C93868997890197F1F7608D718D0C
:100F8000A685B785558538E020E0CB010197F1F7BC
:100F9000822F90E095958795282F4C91452309F055
:100FA0002068315091F7868D81FD20958091C9018F
:100FB00090E001968F7399273091C801381749F056
:100FC000A091C901B0E0AD52BE4F2C938093C901EE
:100FD00003C0868D8160868F828D938D0197F1F796
:100FE000A389B4899C918589892B8C93FF91EF917A
:100FF000BF91AF919F918F917F916F915F914F9131
:101000003F912F910F900FBE0F901F9018951F9238
:101010000F920FB60F9211242F933F934F935F932C
:101020006F937F938F939F93AF93BF93EF93FF93B0
:1010300081E090E00E944A19813021F488EB9BE026
:101040000E94C50481E090E00E944A19823021F498
:1010500088EE93E00E94C504FF91EF91BF91AF919C
:101060009F918F917F916F915F914F913F912F91C0
:101070000F900FBE0F901F901895882329F0682FAE
:1010800081E090E00E94521981E090E00C944A19AE
:10109000CF93DF93C82F682F85E00E94140A61E088
:1010A000C11160E086E00E94140AC3ECD0E0CE01DA
:1010B0000197F1F760E085E00E94140A60E086E0A5
:1010C0000E94140A2197F1F7DF91CF9108950F93B1
:1010D0001F93CF93DF93EC010E94B9058C0162EC62
:1010E00071E0CE010E942506800F911FDF91CF9104
:1010F0001F910F9108958F929F92AF92BF92EF929E
:10110000FF920F931F93CF93DF93CDB7DEB7A197D5
:101110000FB6F894DEBF0FBECDBF7C01FA01CB0144
:1011200019A2223008F42AE08E010F5D1F4F822E93
:10113000912CA12CB12CBF01A50194010E94D519BD
:10114000F901CA01015011096A3014F4605D01C04F
:10115000695CD8016C93232B242B252B61F7B801F4
:10116000C7010E942506A1960FB6F894DEBF0FBEF8
:10117000CDBFDF91CF911F910F91FF90EF90BF9066
:10118000AF909F908F9008954F925F926F927F9251
:101190008F929F92AF92BF92CF92DF92EF92FF9287
:1011A0000F931F93CF93DF93EC0180E090E02F81AA
:1011B00038858217930738F4ED81FE81E80FF91F17
:1011C00010820196F4CF8FB7F8948090130290901C
:1011D0001402A0901502B09016028FBF412C512C22
:1011E00000E010E06B01E12CF12C88819981DC0199
:1011F000ED91FC910084F185E02D0995892BC9F1D1
:101200006D807E80600E711E88819981DC01ED9178
:10121000FC910284F385E02D0995F3018083ED8133
:10122000FE81E00FF11F80818D3071F08A3079F4FA
:10123000552071F04394F2E04F120AC08F85882345
:10124000C1F163EA76E010C05524539401C0512CDB
:101250000F5F1F4F8F8198850817190751F48F85ED
:10126000882339F16CE776E08A819B810E946708C8
:1012700020C02FB7F8948091130290911402A0918E
:101280001502B09116022FBF88199909AA09BB0946
:10129000C816D906EA06FB0608F0A7CF1F8511235A
:1012A000F9F062E676E08A819B810E94670810E08F
:1012B00017C01F85112399F06EE476E08A819B8127
:1012C0000E94B9056D817E818A819B810E942506DD
:1012D0006CE476E08A819B810E94670801C011E07E
:1012E000812FDF91CF911F910F91FF90EF90DF90B1
:1012F000CF90BF90AF909F908F907F906F905F90B6
:101300004F900895CF92DF92EF92FF921F93CF9369
:10131000DF93CDB7DEB760970FB6F894DEBF0FBE90
:10132000CDBF7C016A010E94C408182F8823A1F058
:10133000B601CE0101960E946614F701658176819F
:1013400020E030E0AE014F5F5F4FC7010E94DD0536
:10135000181619060CF010E0812F60960FB6F8945D
:10136000DEBF0FBECDBFDF91CF911F91FF90EF90F9
:10137000DF90CF900895EF92FF920F931F93CF933A
:10138000DF93CDB7DEB7A1970FB6F894DEBF0FBEDF
:10139000CDBF7C01CB01BA01F7011182108213820B
:1013A0001282158214828E010F5F1F4F22E044E0EB
:1013B0000E941B14009769F0FC0101900020E9F7DE
:1013C0003197AF01481B590BBC01C7010E942B0587
:1013D0000EC0F70180819181009711F00E94191CC5
:1013E000F701118210821582148213821282A19653
:1013F0000FB6F894DEBF0FBECDBFDF91CF911F9126
:101400000F91FF90EF9008951092340210923302E2
:101410006DE187E192E00E94FF06482F4E7F6DE963
:1014200087E192E00C94DA0690E0FC01E85CF94F69
:101430002491FC01EC5DF94F3491FC01E05FF94F20
:10144000E491EE2309F43CC0222339F1233091F0DA
:1014500038F42130A9F0223001F584B58F7D12C017
:10146000273091F02830A1F02430B9F48091800029
:101470008F7D03C0809180008F77809380000DC0A6
:1014800084B58F7784BD09C08091B0008F7703C089
:101490008091B0008F7D8093B000F0E0EE0FFF1FD1
:1014A000EA5FF94FA591B4919FB7F894611104C018
:1014B0008C913095382302C0EC913E2B3C939FBF1A
:1014C0000895CF93DF9390E0FC01EC5DF94F2491F8
:1014D000FC01E05FF94F8491882361F190E0880F6F
:1014E000991FFC01E450FA4FC591D491FC01EA5FC9
:1014F000F94FA591B491611109C09FB7F894888103
:10150000209582238883EC912E230BC0623061F4F6
:101510009FB7F8948881322F309583238883EC918C
:101520002E2B2C939FBF06C08FB7F894E8812E2BEB
:1015300028838FBFDF91CF9108958E3008F08E50B1
:101540008770806480937C0080917A0080648093AF
:101550007A0080917A0086FDFCCF809178002091FE
:10156000790090E0922B08953FB7F8948091430260
:1015700090914402A0914502B091460226B5A89BE5
:1015800005C02F3F19F00196A11DB11D3FBFBA2F15
:10159000A92F982F8827820F911DA11DB11DBC0175
:1015A000CD0142E0660F771F881F991F4A95D1F73A
:1015B00008958F929F92AF92BF92CF92DF92EF9257
:1015C000FF926B017C010E94B40A4B015C01C114C3
:1015D000D104E104F104F1F00E94B40ADC01CB0172
:1015E00088199909AA09BB09883E9340A105B1054C
:1015F00070F321E0C21AD108E108F10888EE880EE4
:1016000083E0981EA11CB11CC114D104E104F104B3
:1016100019F7DDCFFF90EF90DF90CF90BF90AF90A4
:101620009F908F9008951F920F920FB60F921124E2
:101630002F933F938F939F93AF93BF938091130208
:1016400090911402A0911502B091160230914202BD
:1016500023E0230F2D3720F40196A11DB11D05C0F5
:1016600026E8230F0296A11DB11D2093420280930C
:10167000130290931402A0931502B0931602809166
:10168000430290914402A0914502B0914602019616
:10169000A11DB11D8093430290934402A093450283
:1016A000B0934602BF91AF919F918F913F912F913F
:1016B0000F900FBE0F901F901895CF93DF93CDB76B
:1016C000DEB7CB59D1090FB6F894DEBF0FBECDBF40
:1016D000789484B5826084BD84B5816084BD85B50D
:1016E000826085BD85B5816085BD80916E00816019
:1016F00080936E00109281008091810082608093BF
:1017000081008091810081608093810080918000C0
:101710008160809380008091B10084608093B100EB
:101720008091B00081608093B00080917A008460E5
:1017300080937A0080917A00826080937A00809111
:101740007A00816080937A0080917A00806880932B
:101750007A001092C1001092B0001092B100109265
:10176000B20089EF8093B3008091B00082608093D3
:10177000B0008091B10082608093B10080917000D0
:1017800082608093700078948AE00E943D0861E056
:1017900085E00E94610A61E086E00E94610A61E0E2
:1017A00085E00E94140A61E086E00E94140A3AE093
:1017B000E32EF12C00E010E0809141020E949D0A8E
:1017C000080F191F6AE070E080E090E00E94D90ADB
:1017D00021E0E21AF10881F7C8016AE070E00E9496
:1017E000C119072E000C880B990B0E942A186093D0
:1017F000390270933A0280933B0290933C0261E07D
:10180000809127020E94610A61E0809127020E9474
:10181000140A8091290290912A028F3FAFEF9A0714
:10182000C9F061E00E94610A60E0809129020E9493
:10183000140A6AE070E080E090E00E94D90A61E05A
:10184000809129020E94140A6AE070E080E090E032
:101850000E94D90A1FB7F8948091CC01811127C04A
:10186000EAE1F6E08491EEE2F6E09491E82FF0E010
:10187000EE0FFF1FE450FA4FA591B491EC91E923CC
:1018800021F461E08AE00E94140A61E08AE00E948B
:10189000610A8CB580618CBD8CB580648CBD61E0C3
:1018A0008DE00E94610A61E08BE00E94610A8091F4
:1018B000CC018F5F8093CC011FBF62E487E192E08F
:1018C0000E94FF06823109F0A6C040E861E887E186
:1018D00092E00E94DA0680E49EE0AFECB9E18093EA
:1018E0002D0290932E02A0932F02B09330024CE66B
:1018F00066E887E192E00E94DA0640E467E887E163
:1019000092E00E94DA0640E068E887E192E00E94F7
:10191000DA0640E06EE887E192E00E94DA0640E0F5
:101920006FE887E192E00E94DA066CE087E192E0DE
:101930000E94FF06482F43606CE887E192E00E9416
:10194000DA0644E066EA87E192E00E94DA0644E8BB
:101950006DEC87E192E00E94DA064BE26BE887E1EA
:1019600092E00E94DA064FE869E887E192E00E947F
:10197000DA0641E861E887E192E00E94DA068FE149
:1019800090E00E94811B7C01FC011382128288EE90
:1019900093E0A0E0B0E084839583A683B7838EE0D4
:1019A00091E091838083178A168A118E108E138E90
:1019B000128E158E148E668D6E7F6D7F668F669586
:1019C000617081E0682783E00E94140A61E083E08F
:1019D0000E94610AE7E2F6E0E491D7015096EC93A9
:1019E000E3E1F6E0E491F0E0EE0FFF1FEA5FF94F6C
:1019F00085919491F701928B818B60E082E00E9447
:101A0000610AD7015E968C9181FD06C061E082E09B
:101A10000E94140A01C0FFCF82E0F7018487E6E24A
:101A2000F6E0E491D7011D96EC93E2E1F6E0E49153
:101A3000F0E0EE0FFF1FE356FE4F85919491F70102
:101A4000978786878DE991E0958F848F2DEB30E025
:101A5000378B268B2BE931E0318F208F2CE231E060
:101A6000338F228F209168002460209368002DE638
:101A700030E0348B238B24E0258B0197F1F7E09144
:101A8000CA01F091CB01EE16FF0611F1309739F043
:101A9000A389B4899C918589809589238C93D701EA
:101AA0005E968C915E978E7F5E968C935E97109279
:101AB000C9011092C801F092CB01E092CA0153967D
:101AC000ED91FC915497908155968C91892B808350
:101AD00080E190E00E94811B8C01FC011382128244
:101AE000148210861782148613861686158617862A
:101AF000F182E08261E080E00E94610AD8011F96D5
:101B00008C911F97882341F067EA71E012968D91BE
:101B10009C9113970E94670861E0F80184810E94FC
:101B2000140A64EF71E080E090E00E94D90A60E05E
:101B3000D80114968C910E94140A64EF71E080E041
:101B400090E00E94D90A61E0F80184810E94140AA1
:101B500068EE73E080E090E00E94D90AD8018D9190
:101B60009C91DC01ED91FC910680F781E02D0995B7
:101B7000F80180819181DC01ED91FC910084F18577
:101B8000E02D0995F801892B51F080819181DC01CC
:101B9000ED91FC910284F385E02D0995E9CF8785CD
:101BA0008823C9F06CEE71E0828193810E94B905AF
:101BB0002AE048EC50E060E070E0D80112968D9188
:101BC0009C9113970E947B0865EE71E0F801828179
:101BD00093810E94670888EC90E0D80118969C9346
:101BE0008E9317970E94811BF801968385838785C2
:101BF0008823C9F06EEB71E0828193810E94B90560
:101C00002AE040E052E060E070E0D80112968D9149
:101C10009C9113970E947B0867EB71E0F801828129
:101C200093810E94670880E092E0D8011C969C9303
:101C30008E931B970E94811BF801928781871093D6
:101C4000CE010093CD018E010B571F4F1801F1E417
:101C5000C956DF4FF883C759D040C956DF4F288196
:101C6000C759D040213409F088C00E94B40A2B0122
:101C70003C01C12CD12C7601812C912C54010E9465
:101C8000B40ADC01CB0184199509A609B709803291
:101C90009E44A105B105B0F58091390290913A02B8
:101CA000A0913B02B0913C02C856DF4F88839983D4
:101CB000AA83BB83C859D040809141020E949D0AEB
:101CC000BC01990F880B990B0E942A189B01AC014B
:101CD000C856DF4F688179818A819B81C859D0407D
:101CE0000E94111A0E94F01A9B01AC010E94B119C6
:101CF000860E971EA81EB91E9FEFC91AD90AE90AB7
:101D0000F90ABDCFC501B401A70196010E94D519FA
:101D1000CA01B9010E9428180E942C1B20E030EC57
:101D20004FE754E40E947E1A20E030E040EA50E49D
:101D30000E94891820913D0230913E0240913F025D
:101D4000509140020E947E1AAB01BC01CE01019667
:101D50000E94BB0989819A81009719F00E943B1467
:101D600003C060E070E0CB01D8016D937D938D934B
:101D70009C93139789819A8109C181E00E94480848
:101D800061E087E192E00E94FF068370833009F1F1
:101D900062E187E192E00E94FF0683FF06C048E00F
:101DA00062E987E192E00E94DA0641E861E887E1B2
:101DB00092E00E94DA060E94040A40E06DE887E1A2
:101DC00092E00E94DA0640E062EA87E192E00E9437
:101DD000DA06C956DF4F6881C759D04087E192E0E3
:101DE0000E94E10343E861E887E192E00E94DA069D
:101DF00062E187E192E00E94FF0683FFF9CF48E0AD
:101E000062E987E192E00E94DA0680E00E944808D9
:101E10008FB7F8948090130290901402A09015024E
:101E2000B09016028FBF62E187E192E00E94FF0648
:101E3000F82E0E94040A4F2D62E987E192E00E9489
:101E4000DA06F6FE2CC0F5FC2AC01092320210927F
:101E500031028091330290913402892B11F062E2B9
:101E600001C063E187E192E00E94FF06E82EF12CB9
:101E700060E187E192E00E94FF06482F6DE887E16C
:101E800092E00E94DA0641E861E887E192E00E9470
:101E9000DA06EF2809F47EC3FF24FA9415C061E046
:101EA00087E192E00E94FF06863809F473C340E0A0
:101EB0006DE887E192E00E94DA0646E861E887E192
:101EC00092E00E94DA0666C387E192E00E9444072E
:101ED000F394892B71F087E192E00E942907E4E6F0
:101EE000F0E0EC0FFD1FEF0DF11DF7FCFA9580837C
:101EF000EBCFE4E6F0E0EC0FFD1FEF0DF11DF7FC7A
:101F0000FA951082A5968FADA597C956DF4FB88177
:101F1000C759D040B8133CC0A6968FADA69788236A
:101F2000A1F081E0E82F082E000CFF0BA4E6B0E042
:101F3000AC0FBD1FAE0FBF1F9C91EC0FFD1F99236F
:101F400019F090838F5FEECF1082BE016F5F7F4FDD
:101F5000CE018F569F4F0E945605CF56DF4F888186
:101F60009981C159D040009719F00E943B1403C0D9
:101F700060E070E0CB01F101608371838283938321
:101F8000CF56DF4F88819981C159D0400E94191CDA
:101F9000C956DF4FF881C759D040FF5FC956DF4FA0
:101FA000F883C759D04024E0220E311CF43409F0E4
:101FB00054CE8091CF019091D0018233910530F4BD
:101FC00001969093D0018093CF01DCC21092D00192
:101FD0001092CF0182E00E943D0861E084E00E94FF
:101FE000610AF12CEE24E3946F2D61706E2584E07C
:101FF0000E94140A64E670E080E090E00E94D90A32
:10200000F39483E0F812F0CFE090CD01F090CE0190
:102010006DE775E0C7010E94900642EC55E068E864
:1020200073E1C7010E948209882371F3C090CD013A
:10203000D090CE0160E875E0C6010E94900668E885
:1020400073E1C6010E94C408882381F3D601159666
:10205000ED90FC90169720E030E042E551E0B701AA
:10206000C6010E94DD05892B09F720E030E040EC35
:1020700051E0B701C6010E94DD058E0D9F1DFC01D8
:1020800031972081205331978081803239F0880F39
:102090008056982F990F990F890F280F21502F31B3
:1020A00028F6C090CD01D090CE0167E875E0C6015A
:1020B0000E94900668E873E1C6010E94C408882364
:1020C00021F1F601E580F68020E030E049E551E0BD
:1020D000B701C6010E94DD0518161906B4F020E00C
:1020E00030E04FE551E0B701C6010E94DD058E0DDD
:1020F0009F1DDC011996EC91E053E63030F4F0E0DE
:10210000E45EFE4F8081882361F2E090CD01F09083
:10211000CE0164EA75E0C7010E94900642EC55E0EA
:1021200060E27EE4C7010E948209882371F360E9BE
:1021300075E0CE0101960E94661447E651E0BE01AB
:102140006F5F7F4FC7010E943A0642EC55E060E2A4
:102150007EE4C7010E9482098823B9F2E090CD0194
:10216000F090CE0165EC75E0C7010E94900642EC4C
:1021700055E068EE7DEFC7010E948209882371F364
:1021800081E00E943D0860E771E0CE018F569F4FCD
:102190000E9456056DE971E0CE018F569F4F0E9457
:1021A0001C05F12CF80141915191619171918F01C0
:1021B000CE0101960E94BB094D815E8169817A81C1
:1021C000CE018F569F4F0E94EE0489819A810E9412
:1021D000191C60EC71E0CE018F569F4F0E941C05C8
:1021E000F394F2E0FF12DECFC357DF4F48815981ED
:1021F0006A817B81CD58D040CE0101960E94BB09F7
:102200004D815E8169817A81CE018F569F4F0E94F8
:10221000EE0489819A810E94191C67EA71E0CE015F
:102220008F569F4F0E941C05CB56DF4F08811981A6
:10223000C559D0400115110511F4198217C0023695
:10224000110510F002E610E0CF56DF4F688179816A
:10225000C159D040A801CE0101960E947D1DE1E048
:10226000F0E0EC0FFD1FE00FF11F10820091CD0197
:102270001091CE0180E090E0D8011B962D913C9109
:102280001C978217930748F41996ED91FC911A97C1
:10229000E80FF91F10820196EFCFF8011686158618
:1022A0006FE275E0C8010E94900642EC55E068E8D4
:1022B00073E1C8010E94820981110AC0D8011F96EA
:1022C0008C911F97882309F46BC260E075E076C09B
:1022D0006CEE74E0C8010E94900642EC55E068E89C
:1022E00073E1C8010E94820981110CC0F801878541
:1022F000882309F455C269EB74E0828193810E94BE
:1023000067084EC266EA74E0CE018C599F4F0E9466
:102310006614AE014F5F5F4FBE016C597F4FC8011D
:102320000E943A0642EC55E068E873E1C8010E9459
:10233000820981110AC0D8011F968C911F978823AA
:1023400009F42EC262E774E039C020E030E049EAC7
:1023500051E0BE016F5F7F4FC8010E94DD05892BF0
:10236000B1F465E674E0C8010E94900642EC55E0C5
:1023700068E873E1C8010E948209811124C0F80154
:102380008785882309F40CC260E374E0B6CF63E26A
:1023900074E0C8010E94900642EC55E068E873E1E1
:1023A000C8010E94820981110EC0D8011F968C912C
:1023B0001F97882309F4F4C16FEE73E012968D9194
:1023C0009C9113979CCF6DE675E0C8010E94900622
:1023D00042EC55E068E873E1C8010E948209882355
:1023E00009F4EEC060E177E2C8010E94C408D80198
:1023F0001F96BC901F97882309F4ECC0F801E58074
:10240000F68020E030E042EB51E0B701C8010E94C5
:10241000DD056C0197FDEAC0F701E80FF91F87851C
:10242000082E000C990BC09744E6489F9001499FE5
:10243000300D1124E1880E2C000CFF08B0E3EB1ADC
:10244000F108E20EF31E8089082E000C990BC0974C
:102450004AE0489F9001499F300D1124E20EF31E7F
:10246000BB20C1F06CE773E0F801828193810E9488
:10247000B905D8011296AD90BC901397A70160E002
:1024800070E02AE0C5010E947B0862EC71E0C501A2
:102490000E942506B8ECEB16F10409F03EC1F801E4
:1024A000168615860580F681E02DEC0DFD1DAF0129
:1024B0003AE0838980538A3008F4A5C0F801878503
:1024C0008823D9F061E573E0828193810E94B90588
:1024D000D8011D964D915C911E9760E070E02AE056
:1024E00012968D919C9113970E947B086AE473E089
:1024F000F801828193810E9467086EE373E0C8014E
:102500000E94900642E353E068E873E1C8010E942C
:102510008209882331F1C12CD12CD8011D962D912F
:102520003C911E971B968D919C911C97C216D306C9
:1025300008F48BC08217930708F4C6C042EC55E03C
:1025400068E873E1C8010E948209F801978581114A
:10255000CFC0992331F065E872E0828193810E94B7
:10256000670801EC12E08AE00E943D08CF56DF4F79
:1025700088819981C159D0400E94191C083C1105DD
:1025800009F4F0C080E090E0892B09F45CCB0E9454
:10259000000059CB2FB7F894809113029091140248
:1025A000A0911502B09116022FBF88199909AA09A6
:1025B000BB09893E9340A105B10508F434CCA2CCF7
:1025C000F8018785882309F4C5C06BE375E0828133
:1025D000938116C0BB2009F4C0C06CEC73E0129666
:1025E0008D919C9113970E946708B7C0BB2009F496
:1025F000B1C06DE973E0D80112968D919C9113974B
:102600000E946708A7C04E175F0771F0D8011D969A
:102610006D917C911E97369FC001379F900D1124BC
:102620001E969C938E931D97D8011D968D919C911B
:102630001E97C0972389820F911D27FD9A951E969C
:102640009C938E931D97319634CFC816D90608F007
:1026500071CFF80180819181DC01ED91FC910084C2
:10266000F185E02D0995892BA1F3F80180819181F5
:10267000DC01ED91FC910084F185E02D0995892B19
:10268000F9F0F801A184B284AC0CBD1C8081918169
:10269000DC01ED91FC910284F385E02D0995F501B3
:1026A0008083D8011996ED91FC911A97EC0DFD1DD0
:1026B00080818D3011F08A3019F4B1E0CB1AD10845
:1026C000EFEFCE1ADE0A29CFD8011E969C938E9387
:1026D0001D971F968C911F97882309F42FCF67EDC4
:1026E00072E012968D919C9113970E94670826CFF5
:1026F000992399F067E572E0828193810E94B90580
:10270000F801C280D38061857285C6010E942506CA
:1027100062EC71E0C6010E9425066BE472E0C8011C
:102720000E94900642EC55E068E873E1C8010E94FF
:102730008209811115C0D8011F968C911F9788239B
:1027400061F162E172E012968D919C9113970E9463
:10275000670823C00FEB12E006CF08E911E003CFB2
:10276000870101CFE091CD01F091CE0161857285A5
:10277000CE0101960E94560589819A81009719F031
:102780000E943F1401C060E080E090E00E94521976
:1027900089819A810E94191CF5CE02EC12E0E3CEE9
:1027A0008AE00E943D08CF56DF4F88819981C15948
:1027B000D040F0CFE7E1F2E01382128284E491E0AE
:1027C0009183808380E5848781E0858787E492E038
:1027D000978786878AE090E0918B808B89E090E0F4
:1027E000938B828B82E090E0958B848B168A178A7C
:1027F000108E118E138E128E158E148E178E168ECD
:1028000011A210A21482158216821782E9E3F2E067
:1028100080E090E0A0E0B4E480839183A283B3835E
:1028200084EA90E7ADE3BEE384839583A683B78310
:102830008EE080870895EF920F931F93CF93DF93DD
:10284000E80147FD02C034E001C034E1042E000C71
:10285000550B57FF03C0519541955109E32E022FA7
:10286000242FAE010E948214CE01DF91CF911F91DF
:102870000F91EF900895662777270C94DC151F932E
:10288000FC0199278827BC01E89411911032E9F3E3
:10289000193010F01E30C8F31B3251F01D3249F4CC
:1028A000689406C00E946D14610F711D811D911DF9
:1028B000119110531A30B0F33EF4909580957095B5
:1028C00061957F4F8F4F9F4F1F910895FB01DC0152
:1028D00005900D920020E1F70895592F482F372FCA
:1028E000262F660F771F881F991F660F771F881F77
:1028F000991F620F731F841F951F660F771F881F14
:10290000991F0895A9E0B0E0E8E8F4E10C9471198A
:102910006A01122FB02E2BE3201720F0FF24F3942E
:10292000F00E02C02CE3F22E0F2D27E0AE014F5F18
:102930005F4F0E942A17BC014981842F8970813022
:1029400031F0E1FC06C0E0FE06C090E205C09DE269
:1029500003C09BE201C090E05E2D507143FF3CC07C
:10296000911102C083E001C084E0811718F4212F87
:10297000281B01C020E051110BC0F601822F30E26C
:10298000882319F031938150FBCFC20ED11C20E077
:10299000992329F0D6019C93F60131966F01C60167
:1029A0000396E2FE0AC03EE4D6013C9341E4119650
:1029B0004C93119712963C9306C03EE6F601308385
:1029C00041E641833283FC01322F40E2332309F494
:1029D00042C041933150FACF42FF44C0911102C02E
:1029E00083E001C084E0811718F4212F281B01C067
:1029F00020E051110BC0F601822F30E2882319F03C
:102A000031938150FBCFC20ED11C20E0992329F0D5
:102A1000D6019C93F60131966F01C6010396E2FE42
:102A20000BC039E4D6013C933EE411963C931197D8
:102A300036E412963C9307C039E6F60130833EE651
:102A4000318336E63283FC01322F40E2332319F022
:102A500041933150FBCFFC01E20FF11D10828EEF4C
:102A60009FEFA6C021E030E0911102C020E030E0ED
:102A7000161617061CF4FB01319602C0E1E0F0E0E7
:102A80002E0F3F1FBB2021F0EB2DF0E0319602C04E
:102A9000E0E0F0E02E0F3F1FE12FF0E02E173F07A0
:102AA0001CF4121B212F01C020E08E2D887159F4D7
:102AB000F601822F30E2882319F031938150FBCF49
:102AC000C20ED11C20E0992329F0D6019C93F60177
:102AD00031966F0151110BC0F601822F90E38823CC
:102AE00019F091938150FBCFC20ED11C20E00F2D25
:102AF000060F9A81342F307144FF03C0913309F4DB
:102B00000150101624F4093018F008E001C001E06B
:102B1000AB0177FF02C040E050E0FB01E41BF50B86
:102B2000A1E0B0E0AC0FBD1FEA0FFB1F8EE2A82EA4
:102B30004B01801A91080B2D10E011950195110998
:102B40004F3FBFEF5B0721F4D601AC9211966D01A8
:102B5000641775072CF08416950614F4818101C062
:102B600080E3415051093196D60111967D014017FD
:102B7000510724F0D6018C936701E2CF64177507E3
:102B800039F4963320F4953319F4311101C081E3FF
:102B9000F6018083F701822F90E2882319F0919348
:102BA0008150FBCFF701E20FF11D108280E090E031
:102BB0002996ECE00C948D19A0E0B0E0E2EEF5E18E
:102BC0000C947119EC016B016115710519F0FB0191
:102BD000918380837E01FFEFEF1AFF0A0881802F27
:102BE00090E00E940218892B11F0E701F3CF0D321B
:102BF00039F47E0182E0E80EF11C098111E008C081
:102C00000B3229F47E0192E0E90EF11C098110E0FB
:102C1000E701219743E050E060E770E0CE010E94B9
:102C20000B18892BC1F4239645E050E06BE670E069
:102C3000CE010E940B18892B09F42596C114D104EA
:102C400019F0F601D183C0831111F6C060E070E085
:102C500080E89FE7FAC043E050E068E670E0CE010C
:102C60000E940B18892B59F4C114D10409F4E9C04E
:102C7000F2E0EF0EF11CF601F182E082E2C020E00A
:102C800030E0A901C0E0D0E0F70180EDA82EA00E51
:102C900089E08A1530F1912F9260B92E812F8870CA
:102CA00012FF04C0811124C0219622C081112197F6
:102CB000A5E0B0E00E946019DC01CB01880F991FEC
:102CC000AA1FBB1F9C01AD012A0D311D411D511DC5
:102CD000283989E93807480789E1580748F016601C
:102CE00006C09EEFA9120AC013FD40C01860B12EA5
:102CF0008FEFE81AF80A00811B2DC6CF802F8F7D39
:102D00008534A1F580818D3211F4106106C08B32BB
:102D100021F0319661E070E004C08181329662E07A
:102D200070E080538A3018F0E61BF70B1FC060E09C
:102D300070E060389CE079075CF4DB01AA0FBB1FF0
:102D4000AA0FBB1F6A0F7B1F660F771F680F711DCD
:102D50003196DF0111978C9180538A3050F314FF24
:102D600003C0719561957109C60FD71F11FF08C087
:102D7000C114D10429F0CF010197F601918380831A
:102D8000CA01B9010E942818212F2370233019F09D
:102D90004B015C0106C04B015C01B7FAB094B7F877
:102DA000B09420E030E0A901C501B4010E942318CD
:102DB000882309F43EC0D7FF06C0D195C195D1093B
:102DC00007E810E002C00FE910E06801F8E1CF1A4F
:102DD000D10890E2E92EF12CCE15DF0574F0F80150
:102DE0002591359145915491C501B4010E948918EE
:102DF0004B015C01CE19DF09EFCF04501109F594A6
:102E0000E7940C151D0541F78A2D880F8B2D881F1F
:102E10008F3F49F020E030E0A901C501B4010E94D4
:102E20002318811106C082E290E0909349028093BA
:102E30004802C501B40109C060E070E080E89FEF7E
:102E400004C060E070E080EC9FE7CDB7DEB7ECE057
:102E50000C948D19283008F027E03327DA01990FF8
:102E6000311D87FD916000966105710539F432606E
:102E70002E5F3D9330E32A95E1F708959F3F30F0B0
:102E800080387105610509F03C5F3C5F3D939130EE
:102E900008F08068911DDF93CF931F930F93FF92EB
:102EA000EF92192F987F9695E92F96959695E90FB1
:102EB000FF27E350FF4F99273327EE24FF24A70174
:102EC000E70105900894079428F4360FE71EF81ED2
:102ED000491F511D660F771F881F991F0694A1F780
:102EE0000590079428F4E70EF81E491F561FC11DD0
:102EF000770F881F991F661F0694A1F70590079406
:102F000028F4F80E491F561FC71FD11D880F991F9F
:102F1000661F771F0694A1F70590079420F4490FC8
:102F2000561FC71FD81F990F661F771F881F06944B
:102F3000A9F784911095177041F0D695C7955795CC
:102F40004795F794E7941A95C1F7E3EAF0E068949F
:102F50001590159135916591959105907FE2739546
:102F6000E118F10A430B560BC90BD009C0F7E10C6D
:102F7000F11E431F561FC91FD01D7EF4703311F47C
:102F80008A95E6CFE894015030F0080F0AF4002744
:102F9000021708F4202F2395022F7A3328F079E3C3
:102FA0007D932A95E9F710C07D932A9589F60694BA
:102FB00097956795379517951794E118F10A430B84
:102FC000560BC90BD00998F023957E9173957A33EF
:102FD00008F070E37C932013B8F77E9170617D93C5
:102FE00030F0839571E37D9370E32A95E1F7112426
:102FF000EF90FF900F911F91CF91DF91992787FD5F
:103000009095089591110C94F618803219F089501A
:103010008550C8F70895FB01DC014150504088F00D
:103020008D9181341CF08B350CF4805E6591613498
:103030001CF06B350CF4605E861B611171F3990B0B
:103040000895881BFCCF0E94651808F481E008955C
:10305000E89409C097FB3EF4909580957095619532
:103060007F4F8F4F9F4F9923A9F0F92F96E9BB27E8
:103070009395F695879577956795B795F111F8CF64
:10308000FAF4BB0F11F460FF1BC06F5F7F4F8F4FCF
:103090009F4F16C0882311F096E911C0772321F0C5
:1030A0009EE8872F762F05C0662371F096E8862F5D
:1030B00070E060E02AF09A95660F771F881FDAF7B4
:1030C000880F9695879597F90895990F0008550FE1
:1030D000AA0BE0E8FEEF16161706E807F907C0F09E
:1030E00012161306E407F50798F0621B730B840BA6
:1030F000950B39F40A2661F0232B242B252B21F480
:1031000008950A2609F4A140A6958FEF811D811D1F
:1031100008950E949C180C9410190E94021938F00E
:103120000E94091920F0952311F00C94F9180C94C1
:10313000FF1811240C9444190E94211970F3959FD3
:10314000C1F3950F50E0551F629FF001729FBB279E
:10315000F00DB11D639FAA27F00DB11DAA1F649F3A
:103160006627B00DA11D661F829F2227B00DA11DED
:10317000621F739FB00DA11D621F839FA00D611D73
:10318000221F749F3327A00D611D231F849F600D94
:10319000211D822F762F6A2F11249F5750409AF0BD
:1031A000F1F088234AF0EE0FFF1FBB1F661F771F49
:1031B000881F91505040A9F79E3F510580F00C9414
:1031C000F9180C9444195F3FE4F3983ED4F38695C4
:1031D00077956795B795F795E7959F5FC1F7FE2BB4
:1031E000880F911D9695879597F9089599278827B7
:1031F000089597F99F6780E870E060E008959FEF79
:1032000080EC089500240A9416161706180609067D
:10321000089500240A94121613061406050608954C
:10322000092E0394000C11F4882352F0BB0F40F4D4
:10323000BF2B11F460FF04C06F5F7F4F8F4F9F4F14
:10324000089557FD9058440F551F59F05F3F71F096
:103250004795880F97FB991F61F09F3F79F08795FD
:103260000895121613061406551FF2CF4695F1DF86
:1032700008C0161617061806991FF1CF8695710516
:10328000610508940895E894BB2766277727CB014A
:1032900097F90895F999FECF92BD81BDF89A9927C3
:1032A00080B50895262FF999FECF1FBA92BD81BD32
:1032B00020BD0FB6F894FA9AF99A0FBE01960895B8
:1032C0000E94A219A59F900DB49F900DA49F800D00
:1032D000911D112408952F923F924F925F926F9209
:1032E0007F928F929F92AF92BF92CF92DF92EF9296
:1032F000FF920F931F93CF93DF93CDB7DEB7CA1B17
:10330000DB0B0FB6F894DEBF0FBECDBF09942A8841
:10331000398848885F846E847D848C849B84AA84E9
:10332000B984C884DF80EE80FD800C811B81AA8176
:10333000B981CE0FD11D0FB6F894DEBF0FBECDBF41
:10334000ED010895A29FB001B39FC001A39F700D2E
:10335000811D1124911DB29F700D811D1124911D9D
:103360000895DB018F939F930E946019BF91AF91E5
:10337000A29F800D911DA39F900DB29F900D1124CF
:10338000089597FB072E16F4009407D077FD09D017
:103390000E94F71907FC05D03EF4909581959F4F48
:1033A0000895709561957F4F0895A1E21A2EAA1B8A
:1033B000BB1BFD010DC0AA1FBB1FEE1FFF1FA217E5
:1033C000B307E407F50720F0A21BB30BE40BF50BE2
:1033D000661F771F881F991F1A9469F7609570956B
:1033E000809590959B01AC01BD01CF010895AA1B6A
:1033F000BB1B51E107C0AA1FBB1FA617B70710F0E0
:10340000A61BB70B881F991F5A95A9F78095909511
:10341000BC01CD010895EE0FFF1F0590F491E02D42
:1034200009945058BB27AA270E94291A0C941019F6
:103430000E94021938F00E94091920F039F49F3FC8
:1034400019F426F40C94FF180EF4E095E7FB0C94A5
:10345000F918E92F0E94211958F3BA176207730768
:103460008407950720F079F4A6F50C9443190EF41F
:10347000E0950B2EBA2FA02D0B01B90190010C0184
:10348000CA01A0011124FF27591B99F0593F50F49C
:10349000503E68F11A16F040A22F232F342F4427F4
:1034A000585FF3CF469537952795A795F0405395EC
:1034B000C9F77EF41F16BA0B620B730B840BBAF0BC
:1034C0009150A1F0FF0FBB1F661F771F881FC2F727
:1034D0000EC0BA0F621F731F841F48F4879577953B
:1034E0006795B795F7959E3F08F0B0CF9395880FF5
:1034F00008F09927EE0F9795879508950E94921AE4
:103500000C9410190E94091958F00E94021940F0F9
:1035100029F45F3F29F00C94F91851110C944419C7
:103520000C94FF180E94211968F39923B1F35523D5
:1035300091F3951B550BBB27AA27621773078407C6
:1035400038F09F5F5F4F220F331F441FAA1FA9F35C
:1035500035D00E2E3AF0E0E832D091505040E6954A
:10356000001CCAF72BD0FE2F29D0660F771F881FAB
:10357000BB1F261737074807AB07B0E809F0BB0B9E
:10358000802DBF01FF2793585F4F3AF09E3F5105B2
:1035900078F00C94F9180C9444195F3FE4F3983ECA
:1035A000D4F3869577956795B795F7959F5FC9F79B
:1035B000880F911D9695879597F90895E1E0660F1C
:1035C000771F881FBB1F621773078407BA0720F095
:1035D000621B730B840BBA0BEE1F88F7E0950895FE
:1035E0000E94F71A6894B1110C94441908950E942E
:1035F000291988F09F5798F0B92F9927B751B0F043
:10360000E1F0660F771F881F991F1AF0BA95C9F766
:1036100014C0B13091F00E944319B1E008950C94A8
:103620004319672F782F8827B85F39F0B93FCCF35B
:10363000869577956795B395D9F73EF490958095E3
:10364000709561957F4F8F4F9F4F089519F416F431
:103650000C94FF180C946C1B0E942919B8F3992341
:10366000C9F3B6F39F57550B87FF0E947A1B0024BE
:10367000A0E640EA900180585695979528F4805C22
:10368000660F771F881F20F026173707480730F48A
:10369000621B730B840B202931294A2BA6951794A2
:1036A0000794202531254A2758F7660F771F881F72
:1036B00020F026173707480730F4620B730B840B92
:1036C000200D311D411DA09581F7B901842F91581E
:1036D000880F9695879508959F3F31F0915020F47B
:1036E000879577956795B795880F911D96958795DE
:1036F00097F9089591505040660F771F881FD2F7B1
:1037000008950F931F93CF93DF938230910510F4A8
:1037100082E090E0E0914C02F0914D0220E030E038
:10372000A0E0B0E0309719F140815181028113810E
:1037300048175907C8F08417950769F4109731F0B6
:1037400012960C93129713961C9327C000934C0269
:1037500010934D0222C02115310519F0421753076D
:1037600018F49A01BD01EF01DF01F801DBCF21154B
:103770003105F9F0281B390B2430310580F48A819A
:103780009B816115710521F0FB019383828304C045
:1037900090934D0280934C02FE01329644C0FE018C
:1037A000E20FF31F819391932250310939832883CB
:1037B0003AC020914A0230914B02232B41F42091D0
:1037C00006013091070130934B0220934A02209169
:1037D0000401309105012115310541F42DB73EB7A3
:1037E0004091080150910901241B350BE0914A02D8
:1037F000F0914B02E217F307A0F42E1B3F0B2817A2
:10380000390778F0AC014E5F5F4F2417350748F059
:103810004E0F5F1F50934B0240934A028193919346
:1038200002C0E0E0F0E0CF01DF91CF911F910F9156
:103830000895CF93DF93009709F481C0FC0132977C
:1038400013821282A0914C02B0914D02109781F424
:1038500020813181820F931F20914A0230914B02C7
:103860002817390751F5F0934B02E0934A0267C0DD
:10387000ED0120E030E0CE17DF0740F44A815B81A4
:103880009E0141155105F1F0EA01F5CFD383C283C2
:1038900040815181840F951FC817D90759F4888139
:1038A0009981840F951F0296918380838A819B81E1
:1038B000938382832115310529F4F0934D02E0931F
:1038C0004C023DC0E901FB83EA8349915991C40F41
:1038D000D51FEC17FD0761F480819181840F951F3E
:1038E0000296E90199838883828193819B838A83ED
:1038F000E0E0F0E012968D919C911397009719F0FB
:10390000FD01DC01F7CF8D919C9111979D012E5FF8
:103910003F4F820F931F20914A0230914B0228178C
:10392000390769F4309729F410924D0210924C0235
:1039300002C013821282B0934B02A0934A02DF911D
:10394000CF910895A0E0B0E0E8EAFCE10C946F1993
:10395000EC01009721F4CB010E94811BB4C0FC0153
:10396000E60FF71F9C0122503109E217F30708F414
:10397000A8C0D9010D911C91119706171707B0F037
:103980000530110508F49BC0C801049786179707F6
:1039900008F495C002501109061B170B01931193EF
:1039A0006D937C93CF010E94191C89C05B01A01A02
:1039B000B10A4C01800E911EA0914C02B0914D02B3
:1039C000612C712CE12CF12C109709F446C08D91DB
:1039D0009C911197A815B905B1F56C0142E0C40E90
:1039E000D11CCA14DB0478F14C018A189B086401CD
:1039F00042E0C40ED11C1296BC9012971396AC9163
:103A0000B5E0CB16D10440F0B282A38391828082CC
:103A1000D9016D937C9309C00E5F1F4F800F911FDA
:103A2000F90191838083EB2DFA2FE114F10431F039
:103A3000D7011396FC93EE93129741C0F0934D0279
:103A4000E0934C023CC06816790608F43C017D0105
:103A500012960D90BC91A02DB7CF80914A02909103
:103A60004B0288169906E1F466167706C8F4809131
:103A7000040190910501009741F48DB79EB74091E4
:103A8000080150910901841B950BE817F907C8F448
:103A9000F0934B02E0934A02F901718360830FC0F7
:103AA000CB010E94811B7C01009759F0A801BE0147
:103AB0000E946D1DCE010E94191CC70104C0CE01D9
:103AC00002C080E090E0CDB7DEB7EEE00C948B1939
:103AD00081E090E0F8940C948C1DFB01DC0102C0A5
:103AE00001900D9241505040D8F70895FB01DC0140
:103AF00001900D920020E1F70895FB01DC01415097
:103B0000504048F001900D920020C9F701C01D926D
:0C3B100041505040E0F70895F894FFCFBA
:103B1C008C038C0300004E022000000000000F04F8
:103B2C008D039904E0035F047704F703000102039B
:103B3C000405000000009C048D03990498049C0467
:103B4C009C049C04000000009C048D0399049804C0
:103B5C0000000000E10352079904E0034407290721
:103B6C00030741542B435351004552524F52002BE3
:103B7C00435245473A2000696E7465726E65740055
:103B8C0068747470733A2F2F6275696C74636F6DFF
:103B9C002E303030776562686F73746170702E638D
:103BAC006F6D2F706F7374732E706870003F736538
:103BBC006E736F723D5B005D0068747470733A2FA6
:103BCC002F002B48545450414354494F4E3A203007
:083BDC002C000D0A002200007C
:00000001FF
